:020000040000FA
:020000000203F9
:02000100020CEF
:020002000214E6
:02000300021BDE
:020004000222D6
:020005000229CE
:020006000230C6
:020007000238BD
:02000800023DB7
:020009000245AE
:02000A00024AA8
:02000B000251A0
:02000C00025799
:02000D00025D92
:02000E0002638B
:02000F00026984
:02001000026E7E
:02001100027477
:02001200027971
:02001300027E6B
:02001400028464
:0200150002895E
:02001600028D59
:02001700029352
:0200180002974D
:02001900029C47
:02001A0002A141
:02001B0002A53C
:02001C0002A937
:02001D0002AE31
:02001E0002B22C
:02001F0002B726
:0200200002BA22
:0200210002BE1D
:0200220002C317
:0200230002C613
:0200240002CA0E
:0200250002CD0A
:0200260002D105
:0200270002D500
:0200280002D9FB
:0200290002DBF8
:02002A0002DFF3
:02002B0002E3EE
:02002C0002E6EA
:02002D0002E9E6
:02002E0002EDE1
:02002F0002EFDE
:0200300002F3D9
:0200310002F6D5
:0200320002F8D2
:0200330002FBCE
:0200340002FFC9
:020035000301C5
:020036000304C1
:020037000307BD
:02003800030AB9
:02003900030CB6
:02003A00030FB2
:02003B000311AF
:02003C000314AB
:02003D000316A8
:02003E000319A4
:02003F00031CA0
:02004000031D9E
:0200410003209A
:02004200032297
:02004300032593
:02004400032790
:0200450003288E
:02004600032B8A
:02004700032D87
:02004800032F84
:02004900033280
:02004A0003337E
:02004B0003367A
:02004C00033778
:02004D00033975
:02004E00033C71
:02004F00033D6F
:02005000033F6C
:02005100034169
:02005200034267
:02005300034563
:02005400034661
:0200550003485E
:02005600034A5B
:02005700034B59
:02005800034D56
:02005900034F53
:02005A00035051
:02005B0003524E
:02005C0003534C
:02005D00035648
:02005E00035746
:02005F00035844
:02006000035A41
:02006100035B3F
:02006200035C3D
:02006300035E3A
:02006400035F38
:02006500036135
:02006600036233
:02006700036430
:0200680003642F
:0200690003662C
:02006A0003672A
:02006B00036927
:02006C00036A25
:02006D00036B23
:02006E00036D20
:02006F00036D1F
:0200700003701B
:02007100037119
:02007200037118
:02007300037216
:02007400037413
:02007500037511
:0200760003760F
:0200770003770D
:0200780003780B
:02007900037909
:02007A00037B06
:02007B00037B05
:02007C00037D02
:02007D00037E00
:02007E00037EFF
:02007F000380FC
:00000001ff
